{
  "_format": "hh-sol-artifact-1",
  "contractName": "CitationIPFS",
  "sourceName": "contracts/CitationIPFS.sol",
  "abi": [
    {
      "inputs": [],
      "stateMutability": "nonpayable",
      "type": "constructor"
    },
    {
      "anonymous": false,
      "inputs": [
        {
          "indexed": true,
          "internalType": "address",
          "name": "owner",
          "type": "address"
        },
        {
          "indexed": true,
          "internalType": "address",
          "name": "spender",
          "type": "address"
        },
        {
          "indexed": false,
          "internalType": "uint256",
          "name": "value",
          "type": "uint256"
        }
      ],
      "name": "Approval",
      "type": "event"
    },
    {
      "anonymous": false,
      "inputs": [
        {
          "indexed": true,
          "internalType": "address",
          "name": "from",
          "type": "address"
        },
        {
          "indexed": true,
          "internalType": "address",
          "name": "to",
          "type": "address"
        },
        {
          "indexed": false,
          "internalType": "uint256",
          "name": "value",
          "type": "uint256"
        }
      ],
      "name": "Transfer",
      "type": "event"
    },
    {
      "inputs": [
        {
          "internalType": "address",
          "name": "owner",
          "type": "address"
        },
        {
          "internalType": "address",
          "name": "spender",
          "type": "address"
        }
      ],
      "name": "allowance",
      "outputs": [
        {
          "internalType": "uint256",
          "name": "",
          "type": "uint256"
        }
      ],
      "stateMutability": "view",
      "type": "function"
    },
    {
      "inputs": [
        {
          "internalType": "address",
          "name": "spender",
          "type": "address"
        },
        {
          "internalType": "uint256",
          "name": "amount",
          "type": "uint256"
        }
      ],
      "name": "approve",
      "outputs": [
        {
          "internalType": "bool",
          "name": "",
          "type": "bool"
        }
      ],
      "stateMutability": "nonpayable",
      "type": "function"
    },
    {
      "inputs": [],
      "name": "associateCitationToUser",
      "outputs": [],
      "stateMutability": "nonpayable",
      "type": "function"
    },
    {
      "inputs": [],
      "name": "associateIPFSToUser",
      "outputs": [],
      "stateMutability": "nonpayable",
      "type": "function"
    },
    {
      "inputs": [
        {
          "internalType": "address",
          "name": "account",
          "type": "address"
        }
      ],
      "name": "balanceOf",
      "outputs": [
        {
          "internalType": "uint256",
          "name": "",
          "type": "uint256"
        }
      ],
      "stateMutability": "view",
      "type": "function"
    },
    {
      "inputs": [],
      "name": "decimals",
      "outputs": [
        {
          "internalType": "uint8",
          "name": "",
          "type": "uint8"
        }
      ],
      "stateMutability": "view",
      "type": "function"
    },
    {
      "inputs": [
        {
          "internalType": "address",
          "name": "spender",
          "type": "address"
        },
        {
          "internalType": "uint256",
          "name": "subtractedValue",
          "type": "uint256"
        }
      ],
      "name": "decreaseAllowance",
      "outputs": [
        {
          "internalType": "bool",
          "name": "",
          "type": "bool"
        }
      ],
      "stateMutability": "nonpayable",
      "type": "function"
    },
    {
      "inputs": [
        {
          "internalType": "address",
          "name": "spender",
          "type": "address"
        },
        {
          "internalType": "uint256",
          "name": "addedValue",
          "type": "uint256"
        }
      ],
      "name": "increaseAllowance",
      "outputs": [
        {
          "internalType": "bool",
          "name": "",
          "type": "bool"
        }
      ],
      "stateMutability": "nonpayable",
      "type": "function"
    },
    {
      "inputs": [
        {
          "internalType": "address",
          "name": "_address",
          "type": "address"
        }
      ],
      "name": "isCitationAssociated",
      "outputs": [
        {
          "internalType": "bool",
          "name": "",
          "type": "bool"
        }
      ],
      "stateMutability": "view",
      "type": "function"
    },
    {
      "inputs": [
        {
          "internalType": "address",
          "name": "_address",
          "type": "address"
        }
      ],
      "name": "isIpfsAssociated",
      "outputs": [
        {
          "internalType": "bool",
          "name": "",
          "type": "bool"
        }
      ],
      "stateMutability": "view",
      "type": "function"
    },
    {
      "inputs": [],
      "name": "name",
      "outputs": [
        {
          "internalType": "string",
          "name": "",
          "type": "string"
        }
      ],
      "stateMutability": "view",
      "type": "function"
    },
    {
      "inputs": [],
      "name": "symbol",
      "outputs": [
        {
          "internalType": "string",
          "name": "",
          "type": "string"
        }
      ],
      "stateMutability": "view",
      "type": "function"
    },
    {
      "inputs": [],
      "name": "totalSupply",
      "outputs": [
        {
          "internalType": "uint256",
          "name": "",
          "type": "uint256"
        }
      ],
      "stateMutability": "view",
      "type": "function"
    },
    {
      "inputs": [
        {
          "internalType": "address",
          "name": "to",
          "type": "address"
        },
        {
          "internalType": "uint256",
          "name": "amount",
          "type": "uint256"
        }
      ],
      "name": "transfer",
      "outputs": [
        {
          "internalType": "bool",
          "name": "",
          "type": "bool"
        }
      ],
      "stateMutability": "nonpayable",
      "type": "function"
    },
    {
      "inputs": [
        {
          "internalType": "address",
          "name": "from",
          "type": "address"
        },
        {
          "internalType": "address",
          "name": "to",
          "type": "address"
        },
        {
          "internalType": "uint256",
          "name": "amount",
          "type": "uint256"
        }
      ],
      "name": "transferFrom",
      "outputs": [
        {
          "internalType": "bool",
          "name": "",
          "type": "bool"
        }
      ],
      "stateMutability": "nonpayable",
      "type": "function"
    }
  ],
  "bytecode": "0x60806040523480156200001157600080fd5b506040518060400160405280601281526020017f4369746174696f6e4950465320546f6b656e00000000000000000000000000008152506040518060400160405280600481526020017f4349544500000000000000000000000000000000000000000000000000000000815250816003908051906020019062000096929190620000b8565b508060049080519060200190620000af929190620000b8565b505050620001cd565b828054620000c69062000168565b90600052602060002090601f016020900481019282620000ea576000855562000136565b82601f106200010557805160ff191683800117855562000136565b8280016001018555821562000136579182015b828111156200013557825182559160200191906001019062000118565b5b50905062000145919062000149565b5090565b5b80821115620001645760008160009055506001016200014a565b5090565b600060028204905060018216806200018157607f821691505b602082108114156200019857620001976200019e565b5b50919050565b7f4e487b7100000000000000000000000000000000000000000000000000000000600052602260045260246000fd5b6119ed80620001dd6000396000f3fe608060405234801561001057600080fd5b50600436106100f55760003560e01c80636f5e4299116100975780639b26a855116100665780639b26a8551461029c578063a457c2d7146102a6578063a9059cbb146102d6578063dd62ed3e14610306576100f5565b80636f5e42991461021457806370a082311461024457806395d89b4114610274578063969f2bcb14610292576100f5565b806323b872dd116100d357806323b872dd14610166578063313ce5671461019657806339509351146101b457806351d7e458146101e4576100f5565b806306fdde03146100fa578063095ea7b31461011857806318160ddd14610148575b600080fd5b610102610336565b60405161010f91906112f7565b60405180910390f35b610132600480360381019061012d91906110b9565b6103c8565b60405161013f91906112dc565b60405180910390f35b6101506103eb565b60405161015d9190611479565b60405180910390f35b610180600480360381019061017b919061106a565b6103f5565b60405161018d91906112dc565b60405180910390f35b61019e610424565b6040516101ab9190611494565b60405180910390f35b6101ce60048036038101906101c991906110b9565b61042d565b6040516101db91906112dc565b60405180910390f35b6101fe60048036038101906101f99190611005565b610464565b60405161020b91906112dc565b60405180910390f35b61022e60048036038101906102299190611005565b6104ba565b60405161023b91906112dc565b60405180910390f35b61025e60048036038101906102599190611005565b610510565b60405161026b9190611479565b60405180910390f35b61027c610558565b60405161028991906112f7565b60405180910390f35b61029a6105ea565b005b6102a461072d565b005b6102c060048036038101906102bb91906110b9565b610870565b6040516102cd91906112dc565b60405180910390f35b6102f060048036038101906102eb91906110b9565b6108e7565b6040516102fd91906112dc565b60405180910390f35b610320600480360381019061031b919061102e565b61090a565b60405161032d9190611479565b60405180910390f35b606060038054610345906115a9565b80601f0160208091040260200160405190810160405280929190818152602001828054610371906115a9565b80156103be5780601f10610393576101008083540402835291602001916103be565b820191906000526020600020905b8154815290600101906020018083116103a157829003601f168201915b5050505050905090565b6000806103d3610991565b90506103e0818585610999565b600191505092915050565b6000600254905090565b600080610400610991565b905061040d858285610b64565b610418858585610bf0565b60019150509392505050565b60006012905090565b600080610438610991565b905061045981858561044a858961090a565b61045491906114cb565b610999565b600191505092915050565b6000600560008373ffffffffffffffffffffffffffffffffffffffff1673ffffffffffffffffffffffffffffffffffffffff16815260200190815260200160002060009054906101000a900460ff169050919050565b6000600660008373ffffffffffffffffffffffffffffffffffffffff1673ffffffffffffffffffffffffffffffffffffffff16815260200190815260200160002060009054906101000a900460ff169050919050565b60008060008373ffffffffffffffffffffffffffffffffffffffff1673ffffffffffffffffffffffffffffffffffffffff168152602001908152602001600020549050919050565b606060048054610567906115a9565b80601f0160208091040260200160405190810160405280929190818152602001828054610593906115a9565b80156105e05780601f106105b5576101008083540402835291602001916105e0565b820191906000526020600020905b8154815290600101906020018083116105c357829003601f168201915b5050505050905090565b60001515600660003373ffffffffffffffffffffffffffffffffffffffff1673ffffffffffffffffffffffffffffffffffffffff16815260200190815260200160002060009054906101000a900460ff1615151461067d576040517f08c379a0000000000000000000000000000000000000000000000000000000008152600401610674906113b9565b60405180910390fd5b6127106106886103eb565b106106c8576040517f08c379a00000000000000000000000000000000000000000000000000000000081526004016106bf90611399565b60405180910390fd5b6001600660003373ffffffffffffffffffffffffffffffffffffffff1673ffffffffffffffffffffffffffffffffffffffff16815260200190815260200160002060006101000a81548160ff02191690831515021790555061072b336002610e71565b565b60001515600560003373ffffffffffffffffffffffffffffffffffffffff1673ffffffffffffffffffffffffffffffffffffffff16815260200190815260200160002060009054906101000a900460ff161515146107c0576040517f08c379a00000000000000000000000000000000000000000000000000000000081526004016107b790611419565b60405180910390fd5b6127106107cb6103eb565b1061080b576040517f08c379a000000000000000000000000000000000000000000000000000000000815260040161080290611399565b60405180910390fd5b6001600560003373ffffffffffffffffffffffffffffffffffffffff1673ffffffffffffffffffffffffffffffffffffffff16815260200190815260200160002060006101000a81548160ff02191690831515021790555061086e33600a610e71565b565b60008061087b610991565b90506000610889828661090a565b9050838110156108ce576040517f08c379a00000000000000000000000000000000000000000000000000000000081526004016108c590611439565b60405180910390fd5b6108db8286868403610999565b60019250505092915050565b6000806108f2610991565b90506108ff818585610bf0565b600191505092915050565b6000600160008473ffffffffffffffffffffffffffffffffffffffff1673ffffffffffffffffffffffffffffffffffffffff16815260200190815260200160002060008373ffffffffffffffffffffffffffffffffffffffff1673ffffffffffffffffffffffffffffffffffffffff16815260200190815260200160002054905092915050565b600033905090565b600073ffffffffffffffffffffffffffffffffffffffff168373ffffffffffffffffffffffffffffffffffffffff161415610a09576040517f08c379a0000000000000000000000000000000000000000000000000000000008152600401610a00906113f9565b60405180910390fd5b600073ffffffffffffffffffffffffffffffffffffffff168273ffffffffffffffffffffffffffffffffffffffff161415610a79576040517f08c379a0000000000000000000000000000000000000000000000000000000008152600401610a7090611339565b60405180910390fd5b80600160008573ffffffffffffffffffffffffffffffffffffffff1673ffffffffffffffffffffffffffffffffffffffff16815260200190815260200160002060008473ffffffffffffffffffffffffffffffffffffffff1673ffffffffffffffffffffffffffffffffffffffff168152602001908152602001600020819055508173ffffffffffffffffffffffffffffffffffffffff168373ffffffffffffffffffffffffffffffffffffffff167f8c5be1e5ebec7d5bd14f71427d1e84f3dd0314c0f7b2291e5b200ac8c7c3b92583604051610b579190611479565b60405180910390a3505050565b6000610b70848461090a565b90507fffffffffffffffffffffffffffffffffffffffffffffffffffffffffffffffff8114610bea5781811015610bdc576040517f08c379a0000000000000000000000000000000000000000000000000000000008152600401610bd390611359565b60405180910390fd5b610be98484848403610999565b5b50505050565b600073ffffffffffffffffffffffffffffffffffffffff168373ffffffffffffffffffffffffffffffffffffffff161415610c60576040517f08c379a0000000000000000000000000000000000000000000000000000000008152600401610c57906113d9565b60405180910390fd5b600073ffffffffffffffffffffffffffffffffffffffff168273ffffffffffffffffffffffffffffffffffffffff161415610cd0576040517f08c379a0000000000000000000000000000000000000000000000000000000008152600401610cc790611319565b60405180910390fd5b610cdb838383610fd1565b60008060008573ffffffffffffffffffffffffffffffffffffffff1673ffffffffffffffffffffffffffffffffffffffff16815260200190815260200160002054905081811015610d61576040517f08c379a0000000000000000000000000000000000000000000000000000000008152600401610d5890611379565b60405180910390fd5b8181036000808673ffffffffffffffffffffffffffffffffffffffff1673ffffffffffffffffffffffffffffffffffffffff16815260200190815260200160002081905550816000808573ffffffffffffffffffffffffffffffffffffffff1673ffffffffffffffffffffffffffffffffffffffff1681526020019081526020016000206000828254610df491906114cb565b925050819055508273ffffffffffffffffffffffffffffffffffffffff168473ffffffffffffffffffffffffffffffffffffffff167fddf252ad1be2c89b69c2b068fc378daa952ba7f163c4a11628f55a4df523b3ef84604051610e589190611479565b60405180910390a3610e6b848484610fd6565b50505050565b600073ffffffffffffffffffffffffffffffffffffffff168273ffffffffffffffffffffffffffffffffffffffff161415610ee1576040517f08c379a0000000000000000000000000000000000000000000000000000000008152600401610ed890611459565b60405180910390fd5b610eed60008383610fd1565b8060026000828254610eff91906114cb565b92505081905550806000808473ffffffffffffffffffffffffffffffffffffffff1673ffffffffffffffffffffffffffffffffffffffff1681526020019081526020016000206000828254610f5491906114cb565b925050819055508173ffffffffffffffffffffffffffffffffffffffff16600073ffffffffffffffffffffffffffffffffffffffff167fddf252ad1be2c89b69c2b068fc378daa952ba7f163c4a11628f55a4df523b3ef83604051610fb99190611479565b60405180910390a3610fcd60008383610fd6565b5050565b505050565b505050565b600081359050610fea81611989565b92915050565b600081359050610fff816119a0565b92915050565b60006020828403121561101757600080fd5b600061102584828501610fdb565b91505092915050565b6000806040838503121561104157600080fd5b600061104f85828601610fdb565b925050602061106085828601610fdb565b9150509250929050565b60008060006060848603121561107f57600080fd5b600061108d86828701610fdb565b935050602061109e86828701610fdb565b92505060406110af86828701610ff0565b9150509250925092565b600080604083850312156110cc57600080fd5b60006110da85828601610fdb565b92505060206110eb85828601610ff0565b9150509250929050565b6110fe81611533565b82525050565b600061110f826114af565b61111981856114ba565b9350611129818560208601611576565b61113281611639565b840191505092915050565b600061114a6023836114ba565b91506111558261164a565b604082019050919050565b600061116d6022836114ba565b915061117882611699565b604082019050919050565b6000611190601d836114ba565b915061119b826116e8565b602082019050919050565b60006111b36026836114ba565b91506111be82611711565b604082019050919050565b60006111d66048836114ba565b91506111e182611760565b606082019050919050565b60006111f9602f836114ba565b9150611204826117d5565b604082019050919050565b600061121c6025836114ba565b915061122782611824565b604082019050919050565b600061123f6024836114ba565b915061124a82611873565b604082019050919050565b60006112626032836114ba565b915061126d826118c2565b604082019050919050565b60006112856025836114ba565b915061129082611911565b604082019050919050565b60006112a8601f836114ba565b91506112b382611960565b602082019050919050565b6112c78161155f565b82525050565b6112d681611569565b82525050565b60006020820190506112f160008301846110f5565b92915050565b600060208201905081810360008301526113118184611104565b905092915050565b600060208201905081810360008301526113328161113d565b9050919050565b6000602082019050818103600083015261135281611160565b9050919050565b6000602082019050818103600083015261137281611183565b9050919050565b60006020820190508181036000830152611392816111a6565b9050919050565b600060208201905081810360008301526113b2816111c9565b9050919050565b600060208201905081810360008301526113d2816111ec565b9050919050565b600060208201905081810360008301526113f28161120f565b9050919050565b6000602082019050818103600083015261141281611232565b9050919050565b6000602082019050818103600083015261143281611255565b9050919050565b6000602082019050818103600083015261145281611278565b9050919050565b600060208201905081810360008301526114728161129b565b9050919050565b600060208201905061148e60008301846112be565b92915050565b60006020820190506114a960008301846112cd565b92915050565b600081519050919050565b600082825260208201905092915050565b60006114d68261155f565b91506114e18361155f565b9250827fffffffffffffffffffffffffffffffffffffffffffffffffffffffffffffffff03821115611516576115156115db565b5b828201905092915050565b600061152c8261153f565b9050919050565b60008115159050919050565b600073ffffffffffffffffffffffffffffffffffffffff82169050919050565b6000819050919050565b600060ff82169050919050565b60005b83811015611594578082015181840152602081019050611579565b838111156115a3576000848401525b50505050565b600060028204905060018216806115c157607f821691505b602082108114156115d5576115d461160a565b5b50919050565b7f4e487b7100000000000000000000000000000000000000000000000000000000600052601160045260246000fd5b7f4e487b7100000000000000000000000000000000000000000000000000000000600052602260045260246000fd5b6000601f19601f8301169050919050565b7f45524332303a207472616e7366657220746f20746865207a65726f206164647260008201527f6573730000000000000000000000000000000000000000000000000000000000602082015250565b7f45524332303a20617070726f766520746f20746865207a65726f20616464726560008201527f7373000000000000000000000000000000000000000000000000000000000000602082015250565b7f45524332303a20696e73756666696369656e7420616c6c6f77616e6365000000600082015250565b7f45524332303a207472616e7366657220616d6f756e742065786365656473206260008201527f616c616e63650000000000000000000000000000000000000000000000000000602082015250565b7f54686572652773206e6f206d6f726520746f6b656e73206c65667420746f206d60008201527f696e742c20746f74616c20737570706c7920686173207265616368656420746860208201527f65206c696d69742e000000000000000000000000000000000000000000000000604082015250565b7f5573657220697320616c726561647920696e63656e746976697a6564206f6e6360008201527f6520666f72206369746174696f6e2e0000000000000000000000000000000000602082015250565b7f45524332303a207472616e736665722066726f6d20746865207a65726f20616460008201527f6472657373000000000000000000000000000000000000000000000000000000602082015250565b7f45524332303a20617070726f76652066726f6d20746865207a65726f2061646460008201527f7265737300000000000000000000000000000000000000000000000000000000602082015250565b7f5573657220697320616c726561647920696e63656e746976697a6564206f6e6360008201527f6520666f7220495046532075706c6f61642e0000000000000000000000000000602082015250565b7f45524332303a2064656372656173656420616c6c6f77616e63652062656c6f7760008201527f207a65726f000000000000000000000000000000000000000000000000000000602082015250565b7f45524332303a206d696e7420746f20746865207a65726f206164647265737300600082015250565b61199281611521565b811461199d57600080fd5b50565b6119a98161155f565b81146119b457600080fd5b5056fea2646970667358221220ac0ea9ca6fa93c3a779e41a7483618aad68f1b16871381203906be73e98f915164736f6c63430008040033",
  "linkReferences": {},
  "deployedLinkReferences": {}
}